{
  "contractName": "VotoEnchente",
  "abi": [
    {
      "constant": true,
      "inputs": [],
      "name": "codigo",
      "outputs": [
        {
          "name": "",
          "type": "uint256"
        }
      ],
      "payable": false,
      "stateMutability": "view",
      "type": "function"
    },
    {
      "constant": false,
      "inputs": [
        {
          "name": "_title",
          "type": "string"
        },
        {
          "name": "_descri",
          "type": "string"
        },
        {
          "name": "_local",
          "type": "string"
        },
        {
          "name": "_data_time",
          "type": "string"
        }
      ],
      "name": "setAlert",
      "outputs": [],
      "payable": false,
      "stateMutability": "nonpayable",
      "type": "function"
    },
    {
      "constant": false,
      "inputs": [
        {
          "name": "cod",
          "type": "uint256"
        },
        {
          "name": "_voto",
          "type": "uint256"
        }
      ],
      "name": "setVoto",
      "outputs": [],
      "payable": false,
      "stateMutability": "nonpayable",
      "type": "function"
    },
    {
      "constant": true,
      "inputs": [
        {
          "name": "index",
          "type": "uint256"
        }
      ],
      "name": "getAlerta",
      "outputs": [
        {
          "name": "cod",
          "type": "uint256"
        },
        {
          "name": "title",
          "type": "string"
        },
        {
          "name": "descri",
          "type": "string"
        },
        {
          "name": "data_time",
          "type": "string"
        },
        {
          "name": "local",
          "type": "string"
        },
        {
          "name": "qtdVotosYes",
          "type": "uint256"
        },
        {
          "name": "qtdVotosNot",
          "type": "uint256"
        },
        {
          "name": "qtdVotos",
          "type": "uint256"
        }
      ],
      "payable": false,
      "stateMutability": "view",
      "type": "function"
    }
  ],
  "bytecode": "0x60806040526000805534801561001457600080fd5b50610c02806100246000396000f3fe608060405234801561001057600080fd5b5060043610610069576000357c010000000000000000000000000000000000000000000000000000000090048063132b8d3c1461006e578063170e9a441461008c5780639f44a5661461030c578063d13d1ef614610344575b600080fd5b61007661054b565b6040518082815260200191505060405180910390f35b61030a600480360360808110156100a257600080fd5b81019080803590602001906401000000008111156100bf57600080fd5b8201836020820111156100d157600080fd5b803590602001918460018302840111640100000000831117156100f357600080fd5b91908080601f016020809104026020016040519081016040528093929190818152602001838380828437600081840152601f19601f8201169050808301925050505050505091929192908035906020019064010000000081111561015657600080fd5b82018360208201111561016857600080fd5b8035906020019184600183028401116401000000008311171561018a57600080fd5b91908080601f016020809104026020016040519081016040528093929190818152602001838380828437600081840152601f19601f820116905080830192505050505050509192919290803590602001906401000000008111156101ed57600080fd5b8201836020820111156101ff57600080fd5b8035906020019184600183028401116401000000008311171561022157600080fd5b91908080601f016020809104026020016040519081016040528093929190818152602001838380828437600081840152601f19601f8201169050808301925050505050505091929192908035906020019064010000000081111561028457600080fd5b82018360208201111561029657600080fd5b803590602001918460018302840111640100000000831117156102b857600080fd5b91908080601f016020809104026020016040519081016040528093929190818152602001838380828437600081840152601f19601f820116905080830192505050505050509192919290505050610551565b005b6103426004803603604081101561032257600080fd5b81019080803590602001909291908035906020019092919050505061066f565b005b6103706004803603602081101561035a57600080fd5b81019080803590602001909291905050506107a1565b604051808981526020018060200180602001806020018060200188815260200187815260200186815260200185810385528c818151815260200191508051906020019080838360005b838110156103d45780820151818401526020810190506103b9565b50505050905090810190601f1680156104015780820380516001836020036101000a031916815260200191505b5085810384528b818151815260200191508051906020019080838360005b8381101561043a57808201518184015260208101905061041f565b50505050905090810190601f1680156104675780820380516001836020036101000a031916815260200191505b5085810383528a818151815260200191508051906020019080838360005b838110156104a0578082015181840152602081019050610485565b50505050905090810190601f1680156104cd5780820380516001836020036101000a031916815260200191505b50858103825289818151815260200191508051906020019080838360005b838110156105065780820151818401526020810190506104eb565b50505050905090810190601f1680156105335780820380516001836020036101000a031916815260200191505b509c5050505050505050505050505060405180910390f35b60005481565b600161010060405190810160405280600054815260200186815260200185815260200184815260200183815260200160018152602001600081526020016001815250908060018154018082558091505090600182039060005260206000209060080201600090919290919091506000820151816000015560208201518160010190805190602001906105e4929190610b31565b506040820151816002019080519060200190610601929190610b31565b50606082015181600301908051906020019061061e929190610b31565b50608082015181600401908051906020019061063b929190610b31565b5060a0820151816005015560c0820151816006015560e0820151816007015550505060016000540160008190555050505050565b60008090505b60018054905081101561079c578260018281548110151561069257fe5b90600052602060002090600802016000015414156107485760008214156106ff57600180828154811015156106c357fe5b906000526020600020906008020160060154016001828154811015156106e557fe5b906000526020600020906008020160060181905550610747565b6001808281548110151561070f57fe5b9060005260206000209060080201600501540160018281548110151561073157fe5b9060005260206000209060080201600501819055505b5b6001808281548110151561075857fe5b9060005260206000209060080201600701540160018281548110151561077a57fe5b9060005260206000209060080201600701819055508080600101915050610675565b505050565b600060608060608060008060006001898154811015156107bd57fe5b90600052602060002090600802016000015497506001898154811015156107e057fe5b90600052602060002090600802016001018054600181600116156101000203166002900480601f0160208091040260200160405190810160405280929190818152602001828054600181600116156101000203166002900480156108855780601f1061085a57610100808354040283529160200191610885565b820191906000526020600020905b81548152906001019060200180831161086857829003601f168201915b5050505050965060018981548110151561089b57fe5b90600052602060002090600802016002018054600181600116156101000203166002900480601f0160208091040260200160405190810160405280929190818152602001828054600181600116156101000203166002900480156109405780601f1061091557610100808354040283529160200191610940565b820191906000526020600020905b81548152906001019060200180831161092357829003601f168201915b5050505050955060018981548110151561095657fe5b90600052602060002090600802016003018054600181600116156101000203166002900480601f0160208091040260200160405190810160405280929190818152602001828054600181600116156101000203166002900480156109fb5780601f106109d0576101008083540402835291602001916109fb565b820191906000526020600020905b8154815290600101906020018083116109de57829003601f168201915b50505050509350600189815481101515610a1157fe5b9060005260206000209060080201600501549250600189815481101515610a3457fe5b9060005260206000209060080201600601549150600189815481101515610a5757fe5b9060005260206000209060080201600701549050600189815481101515610a7a57fe5b90600052602060002090600802016004018054600181600116156101000203166002900480601f016020809104026020016040519081016040528092919081815260200182805460018160011615610100020316600290048015610b1f5780601f10610af457610100808354040283529160200191610b1f565b820191906000526020600020905b815481529060010190602001808311610b0257829003601f168201915b50505050509450919395975091939597565b828054600181600116156101000203166002900490600052602060002090601f016020900481019282601f10610b7257805160ff1916838001178555610ba0565b82800160010185558215610ba0579182015b82811115610b9f578251825591602001919060010190610b84565b5b509050610bad9190610bb1565b5090565b610bd391905b80821115610bcf576000816000905550600101610bb7565b5090565b9056fea165627a7a7230582032e868ba22614bec53bf43065d1a2fe091b87ed7ffa61ec1df609635500bc9bb0029",
  "source": "pragma solidity 0.5.4;\n\ncontract VotoEnchente {\n    uint public codigo=0;\n    //uint[] public indexs;\n\n    \n    struct Alerta{\n                        uint cod;\n                        string title;\n                        string descri;\n                        string local;\n                        string data_time;\n                        uint  qtdVotosYes;\n                        uint  qtdVotosNot;\n                        uint  qtdVotos;\n\n                    }\n    Alerta[] private alertas;\n\n    function setAlert(string memory  _title, string memory  _descri, string memory  _local, string memory  _data_time ) public {\n        \n        alertas.push(Alerta({\n            cod: codigo,\n            title: _title, \n            descri: _descri,\n            local: _local,\n            data_time: _data_time,\n            qtdVotosYes: 1,\n            qtdVotosNot: 0,\n            qtdVotos: 1\n        }));\n        //indexs.push(codigo);\n        codigo = codigo + 1;\n    }\n\n    function setVoto(uint cod, uint _voto) public {\n        for (uint i = 0; i < alertas.length; i++) {\n            if(alertas[i].cod == cod)\n                if(_voto == 0){\n                    alertas[i].qtdVotosNot = alertas[i].qtdVotosNot + 1;\n                }else {\n                    alertas[i].qtdVotosYes = alertas[i].qtdVotosYes + 1;\n                }\n                alertas[i].qtdVotos = alertas[i].qtdVotos + 1;\n        }\n    }\n    \n    function getAlerta(uint index) public view\n        returns (uint cod, string memory title, string memory descri, string memory data_time,  \n                string memory local, uint qtdVotosYes, uint qtdVotosNot, uint qtdVotos) {\n        \n            cod = alertas[index].cod;\n            title = alertas[index].title;\n            descri = alertas[index].descri;\n            local = alertas[index].local;\n            qtdVotosYes = alertas[index].qtdVotosYes;\n            qtdVotosNot = alertas[index].qtdVotosNot;\n            qtdVotos = alertas[index].qtdVotos;\n            data_time = alertas[index].data_time;\n        }\n    \n}",
  "sourcePath": "/src/works-Jo/register-react/contracts/VotoEnchente.sol",
  "compiler": {
    "name": "solc",
    "version": "0.5.4+commit.9549d8ff.Emscripten.clang"
  },
  "schemaVersion": "3.3.2",
  "updatedAt": "2020-12-16T23:57:27.875Z",
  "networkType": "ethereum",
  "devdoc": {
    "methods": {}
  },
  "userdoc": {
    "methods": {}
  }
}